:10020000BD02ACBD0266BD02218600B78032B78058
:1002100033B78034B78035B78036B78037BD02B387
:100220003FCE02D8FF03398608B70338CE02BAFFA3
:10023000033BBD023EBD02507A033826F539FE036A
:1002400039BDFF98FE03390808080808FF0339394B
:10025000FE033BA600B78034A601B780350808FF2F
:10026000033BBD0295398601B78031B7803086FFE8
:10027000B78032B78033B78034B78035B78036B7B0
:1002800080378682B78031B680308693B7803186DA
:1002900082B780303986FFB7033686FFB703370150
:1002A000017A033726F97A033626EF39CE031EBDCD
:1002B000FF9839CE032BBDFF9839077706A605ECCA
:1002C000059704FB047003F403BB035302F602CB4F
:1002D000027D023801FA01DD444F0D0A0052450D3E
:1002E0000A004D490D0A0046410D0A00534F0D0A00
:1002F0000052410D0A0053490D0A00444F0D0A00F7
:1003000052450D0A004D490D0A0046410D0A0053A1
:100310004F0D0A0052410D0A0053490D0A00504C7E
:1003200041592053544152540D0A00504C41592018
:06033000454E440D0A00D9
:00000001FF
